85950000000000000000INNOVARE                                040720230000010000000000000000000000000000000000000000000000000000000000000000000000000000000000000000000000000980000001
95950IXYA063636371BR1101                BMP SOCIEDADE DE CREDITO AO MICROEMPREENAVENIDA PAULISTA,1765 - ANDAR 1 CONJ 12 São Paulo                     SP0131120000000000000980000002
95950IXYA063636385BR1101                              DELIFOODS ALIMENTOS EIRELIRua COIMBRA,541                         Cotia                         SP0671241000000000000980000003
95950IXYA063636399BR1101                VAZIK INDUSTRIA E COMERCIO DE VASOS LTDAAL FLAMBOYANTS                          Mairipora                     SP0766281500000000000980000004
95950IXYA063636408BR1101                PORTALPLAST INDUSTRIA E COMERCIO DE LAMIR ALVARES CABRAL,582                    Diadema                       SP0998103000000000000980000005
95950IXYA063636411BR1101                          PERLIMA METAIS PERFURADOS LTDAR. Carlos Gomes,725                     Cordeirópolis                 SP1349000700000000000980000006
95950IXYA063636425BR1101                                 SBR FOODS LTDA - FILIALCOND COM CORPORATE PARK, 305, COND COM CRio Claro                     SP1350897000000000000980000007
95950IXYA063636439BR1101                INDUSTRIA DE MAQUINAS MECAMAU SAO JOSE EAV WASHINGTON LUIZ,1310                 ESPIRITO SANTO DO PINHAL      SP1399000000000000000980000008
95950IXYA063636442BR1101                        IMECA INDUSTRIA METALURGICA LTDAAV CRUZEIRO DO SUL,24-105               Bauru                         SP1703200000000000000980000009
95950IXYA063636456BR1101                         LOJA DE FRANQUIA FRANCHISE LTDAAV AFONSO PENA,2770                     Belo Horizonte                MG3013001200000000000980000010
95950IXYA063636460BR1101                                     BANCO DO BRASIL S/AQ SAUN QUADRA 5 LOTE B TORRES I, II E IIBrasilia                      DF7004091200000000000980000011
95950IXYA063636473BR1101                                     BANCO DO BRASIL S/AQ SAUN QUADRA 5 LOTE B TORRES I, II E IIBrasilia                      DF7004091200000000000980000012
95950IXYA063636487BR1101                                WINKERT  e  WINKERT LTDAAV MANOEL RIBAS,2253                    Curitiba                      PR8081000000000000000980000013
95950IXYA063636495BR1101                      FRIGELAR COMERCIO E INDUSTRIA LTDARua REPUBLICA ISLAMICA DO IRA,160       Curitiba                      PR8154008200000000000980000014
95950IXYA063636500BR1101                   GELOPAR REFRIGERACAO PARANAENSE LTDA.RUA DR.ELI VOLPATO,250                  Araucária                     PR8370774600000000000980000015
95950IXYA063636513BR1101                                     BUNGE ALIMENTOS S/AROD BR-376,KM 507.7                     Ponta Grossa                  PR8404345000000000000980000016
95950IXYA063636527BR1101                                  DAZELI CONFECCOES LTDAAV PREF. FARID ABRAHAO,517              BITURUNA                      PR8464000000000000000980000017
95950IXYA063636535BR1101                 FRIOVEL DISTRIBUIDORA DE ALIMENTOS LTDARua MATO GROSSO,370                     Pato Branco                   PR8550120000000000000980000018
95950IXYA063636544BR1101                             PLUSVAL AGROAVICOLA LTDA 05AV RIO GRANDE DO SUL,2880 - SALA 01     CAPANEMA                      PR8576000000000000000980000019
95950IXYA063636558BR1101                TUICIAL INDUSTRIA GRAFICA E EDITORA LTDAROD BR-277, KM 577                      Cascavel                      PR8582399000000000000980000020
95950IXYA063636561BR1101                                    PALSGAARD CANDON S/AAV IRIO JACOB WELP,810 - CXPST 160      MARCHAL CANDIDO RANDON        PR8596000000000000000980000021
95950IXYA063636575BR1101                AMAFIL INDUSTRIA E COMERCIO DE ALIMENTOSEST PARA CIANORTE - LOTE 294-A          PARANÁ                        PR8720097000000000000980000022
95950IXYA063636589BR1101                       OESA COMERCIO E REPRESENTACOES SARUA SEBASTIAO LARA,SN - GALPAO1 KM 196  Biguaçú                       SC8816416000000000000980000023
95950IXYA063636592BR1101                             OVOS CATARINENSE EIRELI EPPR HERIBERTO EFFTING,1315                Braço do Norte                SC8875000000000000000980000024
95950IXYA063636601BR1101                                 CELESC DISTRIBUICAO S.AAVENIDA ITAMARATI,160 - BLOCO A1, B1 E  Blumenau                      SC8803490000000000000980000025
95950IXYA063636615BR1101                TAF DISTRIBUIDORA DE ALIMENTOS E BEBIDASR VIDAL PROCOPIO LOHN,155               São José                      SC8810481000000000000980000026
95950IXYA063636629BR1101                              PRODUTIVA SISTEMA DE GESTÃR VEREADOR ARTHUR MANOEL MARIANO,362 - SFORQUILHINHA                  SC8810650000000000000980000027
95950IXYA063636632BR1101                             SOLLOMAQUINAS SOLUCOES LTDARUA SAO VICENTE, 170, PALHOÇA, SC,170   Palhoça                       SC8813010200000000000980000028
95950IXYA063636646BR1101                          WF INGREDIENTES DO BRASIL LTDARua AZALEIA,45                          Palhoça                       SC8813338200000000000980000029
95950IXYA063636650BR1101                           MERCOPLASA IND DE CONTENTORESRua BIGUA,sc                            Tijucas                       SC8820000000000000000980000030
95950IXYA063636663BR1101                SERVICO NACIONAL DE APRENDIZAGEM INDUSTRRUA HENRIQUE VIGARANI,163 - BLOCO 7     Itajaí                        SC8830555500000000000980000031
95950IXYA063636677BR1101                      CENTRO COMERCIAL DE ALIMENTOS LTDAROD BR 101,BR 101 - GALPAO 07           Itajaí                        SC8830862000000000000980000032
95950IXYA063636685BR1101                EMBRAST INDUSTRIA E COMERCIO DE EMBALAGERUA EDMUNDO LEOPOLDO MERIZIO, 1200 00250Itajaí                        SC8831849000000000000980000033
95950IXYA063636694BR1101                COMPANHIA CATARINENSE DE ÁGUAS E SANEAMERUA ADOLFO KONDER,258                   Concórdia                     SC8837000000000000000980000034
95950IXYA063636703BR1101                                  PAMPLONA ALIMENTOS S/AR. Humberto de Campos,449               Lages                         SC8850819000000000000980000035
95950IXYA063636717BR1101                        REFISA INDUSTRIA E COMERCIO LTDAROD BR  KM 278                          Imbituba                      SC8878000000000000000980000036
95950IXYA063636725BR1101                                     SERGIO LUIZ ZANETTEAVENIDA CAETE,215                       Criciúma                      SC8880577500000000000980000037
95950IXYA063636734BR1101                CRISTAL INDUSTRIA E COMERCIO DE EMBALAGEROD SC 443 - KM 16                      MORRO DA FUMAÇA               SC8883000000000000000980000038
95950IXYA063636748BR1101                FUTURA INDUSTRIA DE ARTEFATOS PLASTICOS R 15 DE NOVEMBRO,11140 - COMPLEXO B     Pomerode                      SC8910700000000000000980000039
95950IXYA063636751BR1101                                  3XDATA TECNOLOGIA LTDARua LEONIDAS FAVERO,935                 Concórdia                     SC8970136000000000000980000040
95950IXYA063636765BR1101                BAPTISTETTI TECNOLOGIA EM SISTEMAS DE GERua HENRY GIESSEMBIER,38 - LETRA E      Chapecó                       SC8980143000000000000980000041
95950IXYA063636779BR1101                                        EAGLE TRACK LTDARua ANTONIO MORANDINI,802 -D - SALA 03  Chapecó                       SC8980216000000000000980000042
95950IXYA063636782BR1101                           FORCE GESTAO ESTRATEGICA LTDARua LA SALLE,1359 - SALA 01             São Miguel do Oeste           SC8990000000000000000980000043
95950IXYA063636796BR1101                COFERPAN COMERCIAL CATARINENSE DE PRODUTRua GUSTAVO ZIMMERMANN,5840             Blumenau                      SC8906300100000000000980000044
95950IXYA063636805BR1101                      LAMITEC IND COM EMBAL PLAST EIRELIRUA XV DE NOVEMBRO,6553 - GALPAO 02     Pomerode                      SC8910700000000000000980000045
95950IXYA063636819BR1101                                 SIGAMAQ INDUSTRIAL LTDAR. Butuca,555                           Massaranduba                  SC8910800000000000000980000046
95950IXYA063636822BR1101                         SEGALAS ALIMENTOS LTDA FILIAL 2ROD INGO HERING,18370                   Gaspar                        SC8911754000000000000980000047
95950IXYA063636836BR1101                              LACTICINIOS LACTOVALE LTDAEST GERAL RIBEIRAO PINHEIRO,1234        TAIO                          SC8919000000000000000980000048
95950IXYA063636840BR1101                          NOVACKI INDUSTRIAL S.A. - JGUARUA JOSE THEODORO RIBEIRO,1967 - BRCAO 1Jaraguá do Sul                SC8925800100000000000980000049
95950IXYA063636853BR1101                FRILUX INDUSTRIA E COMERCIO DE REFRIGERARODM ESTANISLAU WILLNER - KM 2          Mafra                         SC8930989900000000000980000050
95950IXYA063636867BR1101                                                BRF S.A.Rua HERMAN KOLBERG,373                  Videira                       SC8956008000000000000980000051
95950IXYA063636875BR1101                DISTRIB. DE ALIMENTOS FAVRETTO E CORSO LRUA CORONEL ARTUR PEREIRA,29 - SALA B   Joaçaba                       SC8960000000000000000980000052
95950IXYA063636884BR1101                ANJOS MIGARA TRANSPORTES E COMERCIO LTDAROD BR 282 - KM 375                     ERVAL VELHO                   SC8961300000000000000980000053
95950IXYA063636898BR1101                                          ADRIANA SCHELLVITTORIO EMANUELLE,206 - apto 103       Concórdia                     SC8970000000000000000980000054
95950IXYA063636907BR1101                            DAIANE ANDREIA CASSOL DREHEROLIMPIO MALACARNE                       Concórdia                     SC8970000000000000000980000055
95950IXYA063636915BR1101                               DEBORA PIAZENTINI BERGAMOROSA CHIOSSI,130                        Concórdia                     SC8970000000000000000980000056
95950IXYA063636924BR1101                                          FILIPE FONTANAABRAMO EBERLE,166                       Concórdia                     SC8970000000000000000980000057
95950IXYA063636938BR1101                                  JEANE DANIELA BALBINOTELISEO FIAMETTI,125                     Concórdia                     SC8970000000000000000980000058
95950IXYA063636941BR1101                                  MARCEL ANDREI GONÇALVEPRIMO ANTONIO MIOTO,180                 Concórdia                     SC8970000000000000000980000059
95950IXYA063636955BR1101                                      MARCIO JOSE ROMANISILVINO CIARINI,307                     Concórdia                     SC8970000000000000000980000060
95950IXYA063636969BR1101                                   RENATO LUIS MENEGETTIANDREIA BIEZUS,308                      Concórdia                     SC8970000000000000000980000061
95950IXYA063636972BR1101                             SERVICO SOCIAL DA INDUSTRIAR. Dr. Maruri,614                       Concórdia                     SC8970000000000000000980000062
95950IXYA063636986BR1101                               OLMI ADVOGADOS ASSOCIADOSRua Marechal Deodoro,772 - Ed Mirage    Concórdia                     SC8970000100000000000980000063
95950IXYA063636990BR1101                      PLASCON - PLASTICOS CONCORDIA LTDAROD BR. 153                             Concórdia                     SC8970000100000000000980000064
95950IXYA063637006BR1101                COOPERATIVA DE CREDITO DE EMPRESARIOS - Rua DO COMÉRCIO,207                     Concórdia                     SC8970008500000000000980000065
95950IXYA063637010BR1101                COOPERATIVA DE CREDITO DE LIVRE ADMISSAORUA DR MARURI,1242                      Concórdia                     SC8970016800000000000980000066
95950IXYA063637023BR1101                                          JACKSON VARELADAS VIOLETAS,839                        Concórdia                     SC8970309800000000000980000067
95950IXYA063637037BR1101                                       RAFAEL DORZBACHEROROZIMBO FURLAN,48                      Concórdia                     SC8971104800000000000980000068
95950IXYA063637045BR1101                BRASITALIA COM. DE EQUIPAMENTOS E PRODUTAV NEREU RAMOS,747-E - SALA 03          Chapecó                       SC8980102100000000000980000069
95950IXYA063637054BR1101                CONSULTLINE PROCESSAMENTOS EMPRESARIAIS Rua HENRY GIESSEMBIER,38 - LETRA E e salChapecó                       SC8980143000000000000980000070
95950IXYA063637068BR1101                OESTEPAN DISTRIBUIDORA DE ALIMENTOS LTDAGeni Zani Scussiatto,280 -E             Chapecó                       SC8980483800000000000980000071
95950IXYA063637071BR1101                                INDUSTER INDUSTRIAL LTDARUA RAIMUNDO ZANELLA,235 D              Chapecó                       SC8981382400000000000980000072
95950IXYA063637085BR1101                FHILIPPI DISTRIBUIDORA DE ALIMENTOS LTDARUA NATAL,409 E                         Chapecó                       SC8981457000000000000980000073
95950IXYA063637099BR1101                                   LUDOVICO J.TOZZO LTDARODVIA BR 282 KM 527,5                  Cordilheira Alta              SC8981900000000000000980000074
95950IXYA063637108BR1101                                        MERCADO ZAT LTDARua SENADOR ATTILIO FRANCISCO XAVIER FONConcórdia                     SC8981900000000000000980000075
95950IXYA063637111BR1101                                    MOINHO MARTELLI LTDARUA SAO PAULO,25                        Coronel Freitas               SC8984000000000000000980000076
95950IXYA063637125BR1101                          COOPERATIVA REGIONAL AURIVERDERua  MOURA BRASIl,casa                  Cunha Porã                    SC8989000000000000000980000077
95950IXYA063637139BR1101                        MARINEUZA K. ANGHEBEN & CIA LTDAR MARIO PAGLIOSA                        São Lourenço do Oeste         SC8999000000000000000980000078
95950IXYA063637142BR1101                                   MOINHOS GALOPOLIS S AAVENIDA DOS ESTADOS,1645                Porto Alegre                  RS9020000100000000000980000079
95950IXYA063637156BR1101                      FRIGELAR COMERCIO E INDUSTRIA LTDAAV CRUZEIRO,899/01                      Cachoeirinha                  RS9493061500000000000980000080
95950IXYA063637160BR1101                                    MOINHOS GALOPOLIS SAROD BR-116,878                          Caxias do Sul                 RS9509005000000000000980000081
95950IXYA063637173BR1101                                  Progas Ind. Met. Ltda.R. Eustáquio Mascarello,512             Caxias do Sul                 RS9511032500000000000980000082
95950IXYA063637187BR1101                              GALVANOTEK EMBALAGENS LTDARUA LEONILDA MAFFACIOLI BALDASSO,326    CARLOS BARBOSA                RS9518500000000000000980000083
95950IXYA063637195BR1101                             BREAD MIX INGREDIENTES LTDAAV TAQUARA,361 - SALA 1                 Parobé                        RS9563000000000000000980000084
95950IXYA063637200BR1101                NOVA PACK FABRICACAO DE PRODUTOS PLASTICRUA ARLINDO FRANKLIN BARBOSA,2074       Bento Gonçalves               RS9570820000000000000980000085
95950IXYA063637213BR1101                              GALVANOTEK EMBALAGENS LTDAEST RST 470,KM 243                      BARRA                         RS9573000000000000000980000086
95950IXYA063637227BR1101                               METALURGICA VENANCIO LTDARua WILMA HELENA KUNZ,2469              Venancio Aires                RS9580000000000000000980000087
95950IXYA063637235BR1101                                   VICATO ALIMENTOS LTDARodovia Ers 126, Km 104,5               SANANDUVA                     SC9984000000000000000980000088
95950IXYA063637244BR1101                COPA ENERGIA DISTRIBUIDORA DE GAS S.A. -ROD BR-285,13000 - km 302, sala A       Passo Fundo                   RS9901006000000000000980000089
95950IXYA063637258BR1101                   ROTOPLAST IND. DE CLIMATIZADORES LTDAROD JUARES DOMINGOS VICARI SC 492-KM 1,7Maravilha                     SC8987400000000000000980000090