85950000000000000000INNOVARE                                280720230000010000000000000000000000000000000000000000000000000000000000000000000000000000000000000000000000001210000001
95950IXYA199041607BR1101                                      Itaú Unibanco S.A.Praça Alfredo Egydio de Souza Aranha,100São Paulo                     SP0434490200000000001210000002
95950IXYA199041615BR1101                                     Banco Bradesco S.A.Núcleo Cidade de Deus                   Osasco                        SP0602990000000000001210000003
95950IXYA199041624BR1101                       BB Administradora de Consórcios SSetor Saun Quadra 5 - bloco b, 1.º andarBrasilia                      DF7004025000000000001210000004
95950IXYA199041638BR1101                                    Banco do Brasil S.A.Quadra 5, Lote B, Saun - Torres I, II e Brasilia                      DF7004091200000000001210000005
95950IXYA199041641BR1101                                    Caixa Econômica FedeSetor Bancário Sul - Quadra 04, 34, BlocBrasilia                      DF7009290000000000001210000006
95950IXYA199041655BR1101                Cooperativa de Crédito Vale do Itajaí ViRua Hermann Hering,1125                 Blumenau                      SC8901097100000000001210000007
95950IXYA199041669BR1101                Cooperativa de Crédito de Livre AdmissãoRua Coronel Procópio Gomes de Oliveira,4Jaraguá do Sul                SC8925120000000000001210000008
95950IXYA199041672BR1101                Instituição Comunitária de Crédito BlumeRua Fiscal Verdi Francisco Lenzi,200 - sJaraguá do Sul                SC8925145000000000001210000009
95950IXYA199041686BR1101                                     José Anselmo da SilRua José Narloch,1130                   Jaraguá do Sul                SC8925379000000000001210000010
95950IXYA199041690BR1101                                            Edison LopesRua José Lescowics,37                   Jaraguá do Sul                SC8926030600000000001210000011
95950IXYA199041709BR1101                Banco Regional de Desenvolvimento do ExtRua Uruguai,155 - 4.º andar             Porto Alegre                  RS9001014000000000001210000012