85950000000000000000INNOVARE                                040720230000010000000000000000000000000000000000000000000000000000000000000000000000000000000000000000000000000980000001
95950IXYA063638973BR1101                      SIGMA TRANSPORTES E LOGISTICA LTDARUA JOSE WENCWSLAU VENTURA,210          São Paulo                     SP1104552500000000000980000002
95950IXYA063638987BR1101                      SIGMA TRANSPORTES E LOGISTICA LTDARUA JOSE WENCWSLAU VENTURA,210          São Paulo                     SP1104552500000000000980000003
95950IXYA063638995BR1101                              QUANTIQ DISTRIBUIDORA LTDARUA ANTONIO LACERDA BRAGA,3210          Curitiba                      PR8117020000000000000980000004
95950IXYA063639007BR1101                              QUANTIQ DISTRIBUIDORA LTDARUA ANTONIO LACERDA BRAGA,3210          Curitiba                      PR8117020000000000000980000005
95950IXYA063639015BR1101                              POSTOS PELANDA ALIPINO IIIBR 116 KM 19,5,S/N                      ANTONINA                      PR8337000000000000000980000006
95950IXYA063639024BR1101                              POSTOS PELANDA ALIPINO IIIBR 116 KM 19,5,S/N                      ANTONINA                      PR8337000000000000000980000007
95950IXYA063639038BR1101                                   POSTOS PELANDA ALPINOROD BR 116 KM19.5,S/N                   ANTONINA                      PR8337000000000000000980000008
95950IXYA063639041BR1101                                   POSTOS PELANDA ALPINOROD BR 116 KM19.5,S/N                   ANTONINA                      PR8337000000000000000980000009
95950IXYA063639055BR1101                                                PROTANKSR LUIZ FRANCESCHI,79                    Araucária                     PR8370538000000000000980000010
95950IXYA063639069BR1101                                                PROTANKSR LUIZ FRANCESCHI,79                    Araucária                     PR8370538000000000000980000011
95950IXYA063639072BR1101                              POSTOS PELANDA JAGUARIAIVAROD PR 151 KM 216,7,151                 JAGUARIAIVA                   PR8420000000000000000980000012
95950IXYA063639086BR1101                              POSTOS PELANDA JAGUARIAIVAROD PR 151 KM 216,7,151                 JAGUARIAIVA                   PR8420000000000000000980000013
95950IXYA063639090BR1101                                  A. A. S. REPRESENTAÇOEAV MADRE LEONIA MILITO,1377             Londrina                      PR8605027000000000000980000014
95950IXYA063639109BR1101                                  A. A. S. REPRESENTAÇOEAV MADRE LEONIA MILITO,1377             Londrina                      PR8605027000000000000980000015
95950IXYA063639112BR1101                 TRUCKS CONTROL SERVIÇOS DE LOGISTICA LTR OSVALDO CRUZ,492                      IBIPORA                       PR8620000000000000000980000016
95950IXYA063639126BR1101                 TRUCKS CONTROL SERVIÇOS DE LOGISTICA LTR OSVALDO CRUZ,492                      IBIPORA                       PR8620000000000000000980000017
95950IXYA063639130BR1101                                           VEBER SERVIÇOREINALDO SCHMITHAUSEN,3089              Itajaí                        SC8831148000000000000980000018
95950IXYA063639143BR1101                                           VEBER SERVIÇOREINALDO SCHMITHAUSEN,3089              Itajaí                        SC8831148000000000000980000019
95950IXYA063639157BR1101                             SRM STRONG TRANSPORTES LTDAAV GABRIEL ZANETTE,1500                 Criciúma                      SC8851550500000000000980000020
95950IXYA063639165BR1101                             SRM STRONG TRANSPORTES LTDAAV GABRIEL ZANETTE,1500                 Criciúma                      SC8851550500000000000980000021
95950IXYA063639174BR1101                      CALIBRA COMERCIO VAREJISTA DE PEÇAROD BR 101 KM336,147                    Tubarão                       SC8870480100000000000980000022
95950IXYA063639188BR1101                      CALIBRA COMERCIO VAREJISTA DE PEÇAROD BR 101 KM336,147                    Tubarão                       SC8870480100000000000980000023
95950IXYA063639191BR1101                                         BANCO DO BRASILAV CENTENARIO,406                       Criciúma                      SC8880100000000000000980000024
95950IXYA063639205BR1101                                         BANCO DO BRASILAV CENTENARIO,406                       Criciúma                      SC8880100000000000000980000025
95950IXYA063639214BR1101                RSC COMERCIO DE PECAS PARA CAMINHOES LTDRODOVIA LUIZ ROSSO, 3675,3675           Criciúma                      SC8880347000000000000980000026
95950IXYA063639228BR1101                RSC COMERCIO DE PECAS PARA CAMINHOES LTDRODOVIA LUIZ ROSSO, 3675,3675           Criciúma                      SC8880347000000000000980000027
95950IXYA063639231BR1101                             ALESSIO SOLUCOES E SERVICOSR MONTEIRO LOBATO,133                   Criciúma                      SC8881102000000000000980000028
95950IXYA063639245BR1101                             ALESSIO SOLUCOES E SERVICOSR MONTEIRO LOBATO,133                   Criciúma                      SC8881102000000000000980000029
95950IXYA063639259BR1101                               CARGO EXPRESS TRANSPORTESROD LUIZ ROSSO,11299                    Criciúma                      SC8881255100000000000980000030
95950IXYA063639262BR1101                               CARGO EXPRESS TRANSPORTESROD LUIZ ROSSO,11299                    Criciúma                      SC8881255100000000000980000031
95950IXYA063639276BR1101                                BRADESCO CAPITAL DE GIROAvenida Centenario,5055                 Criciúma                      SC8881500000000000000980000032
95950IXYA063639280BR1101                                BRADESCO CAPITAL DE GIROAvenida Centenario,5055                 Criciúma                      SC8881500000000000000980000033
95950IXYA063639293BR1101                                  ADRIEL NOVAK DE CASTRORua Michelangelo,320                    Içara                         SC8882000000000000000980000034
95950IXYA063639302BR1101                                  ADRIEL NOVAK DE CASTRORua Michelangelo,320                    Içara                         SC8882000000000000000980000035
95950IXYA063639316BR1101                             MARCELO DE COSTA E CIA LTDA15 DE NOVEMBRO - APARTAMENTO,172 - SALA MORRO DA FUMAÇA               SC8883000000000000000980000036
95950IXYA063639320BR1101                             MARCELO DE COSTA E CIA LTDA15 DE NOVEMBRO - APARTAMENTO,172 - SALA MORRO DA FUMAÇA               SC8883000000000000000980000037
95950IXYA063639333BR1101                               RODOBACH TRANSPORTES LTDAAV INOCENTE PAGNAN,1375                 MORRO DA FUMAÇA               SC8883000000000000000980000038
95950IXYA063639347BR1101                               RODOBACH TRANSPORTES LTDAAV INOCENTE PAGNAN,1375                 MORRO DA FUMAÇA               SC8883000000000000000980000039
95950IXYA063639355BR1101                                              TOTI PNEUSRUA ANGELICA C BETTIOL,238              Urussanga                     SC8884000000000000000980000040
95950IXYA063639364BR1101                                              TOTI PNEUSRUA ANGELICA C BETTIOL,238              Urussanga                     SC8884000000000000000980000041
95950IXYA063639378BR1101                                  CLAUDIONEI DE OLIVEIRARua 26 de Setembro,680                  Cocal do Sul                  SC8884500000000000000980000042
95950IXYA063639381BR1101                                  CLAUDIONEI DE OLIVEIRARua 26 de Setembro,680                  Cocal do Sul                  SC8884500000000000000980000043
95950IXYA063639395BR1101                                            ADILSON ROMÃRua Ezio Lima,S/N                       Içara                         SC8888200000000000000980000044
95950IXYA063639404BR1101                                            ADILSON ROMÃRua Ezio Lima,S/N                       Içara                         SC8888200000000000000980000045
95950IXYA063639418BR1101                               ACEVILLE TRANSPORTES LTDARUA SERVIDAO MIGUEL ANGELO,113          Joinville                     SC8923700700000000000980000046
95950IXYA063639421BR1101                               ACEVILLE TRANSPORTES LTDARUA SERVIDAO MIGUEL ANGELO,113          Joinville                     SC8923700700000000000980000047
95950IXYA063639435BR1101                                ALFA  TRANSPORTES EIRELIAV. ENG. LOURENCO FAORO,3300            Caçador                       SC8951134000000000000980000048
95950IXYA063639449BR1101                                ALFA  TRANSPORTES EIRELIAV. ENG. LOURENCO FAORO,3300            Caçador                       SC8951134000000000000980000049
95950IXYA063639452BR1101                              TRANSPORTADORA FABRIS LTDARUA DOM JOAQUIM DOMINGUES DE OLIVEIRA,13Chapecó                       SC8980517000000000000980000050
95950IXYA063639466BR1101                              TRANSPORTADORA FABRIS LTDARUA DOM JOAQUIM DOMINGUES DE OLIVEIRA,13Chapecó                       SC8980517000000000000980000051
95950IXYA063639470BR1101                                BAUER POSTOS COM DE COMBROD 83 ROD SC 168 KM 365,83             São Lourenço do Oeste         SC8999000000000000000980000052
95950IXYA063639483BR1101                                BAUER POSTOS COM DE COMBROD 83 ROD SC 168 KM 365,83             São Lourenço do Oeste         SC8999000000000000000980000053
95950IXYA063639497BR1101                                 TRANSPORTES RODOVIA SULAV TUPARENDI,1920                       Santa Rosa                    RS9878510900000000000980000054
95950IXYA063639506BR1101                                 TRANSPORTES RODOVIA SULAV TUPARENDI,1920                       Santa Rosa                    RS9878510900000000000980000055