85950000000000000000INNOVARE                                260720230000010000000000000000000000000000000000000000000000000000000000000000000000000000000000000000000000000980000001
95950IXYA063643372BR1101                                      Itaú Unibanco S.A.Praça Alfredo Egydio de Souza Aranha,100São Paulo                     SP0434490200000000000980000002
95950IXYA063643386BR1101                                      Itaú Unibanco S.A.Praça Alfredo Egydio de Souza Aranha,100São Paulo                     SP0434490200000000000980000003
95950IXYA063643390BR1101                                      Itaú Unibanco S.A.Praça Alfredo Egydio de Souza Aranha,100São Paulo                     SP0434490200000000000980000004
95950IXYA063643409BR1101                                      Itaú Unibanco S.A.Praça Alfredo Egydio de Souza Aranha,100São Paulo                     SP0434490200000000000980000005
95950IXYA063643412BR1101                                     Banco Bradesco S.A.Núcleo Cidade de Deus                   Osasco                        SP0602990000000000000980000006
95950IXYA063643426BR1101                                     Banco Bradesco S.A.Núcleo Cidade de Deus                   Osasco                        SC0602990000000000000980000007
95950IXYA063643430BR1101                                     Banco Bradesco S.A.Núcleo Cidade de Deus                   Osasco                        SP0602990000000000000980000008
95950IXYA063643443BR1101                                     Banco Bradesco S.A.Núcleo Cidade de Deus                   Osasco                        SC0602990000000000000980000009
95950IXYA063643457BR1101                       BB Administradora de Consórcios SSetor Saun Quadra 5 - bloco b, 1.º andarBrasilia                      DF7004025000000000000980000010
95950IXYA063643465BR1101                       BB Administradora de Consórcios SSetor Saun Quadra 5 - bloco b, 1.º andarBrasilia                      DF7004025000000000000980000011
95950IXYA063643474BR1101                       BB Administradora de Consórcios SSetor Saun Quadra 5 - bloco b, 1.º andarBrasilia                      DF7004025000000000000980000012
95950IXYA063643488BR1101                       BB Administradora de Consórcios SSetor Saun Quadra 5 - bloco b, 1.º andarBrasilia                      DF7004025000000000000980000013
95950IXYA063643491BR1101                                    Banco do Brasil S.A.Quadra 5, Lote B, Saun - Torres I, II e Brasilia                      DF7004091200000000000980000014
95950IXYA063643505BR1101                                    Banco do Brasil S.A.Quadra 5, Lote B, Saun - Torres I, II e Brasilia                      DF7004091200000000000980000015
95950IXYA063643514BR1101                                    Banco do Brasil S.A.Quadra 5, Lote B, Saun - Torres I, II e Brasilia                      DF7004091200000000000980000016
95950IXYA063643528BR1101                                    Banco do Brasil S.A.Quadra 5, Lote B, Saun - Torres I, II e Brasilia                      DF7004091200000000000980000017
95950IXYA063643531BR1101                                    Caixa Econômica FedeSetor Bancário Sul - Quadra 04, 34, BlocBrasilia                      DF7009290000000000000980000018
95950IXYA063643545BR1101                                    Caixa Econômica FedeSetor Bancário Sul - Quadra 04, 34, BlocBrasilia                      DF7009290000000000000980000019
95950IXYA063643559BR1101                                    Caixa Econômica FedeSetor Bancário Sul - Quadra 04, 34, BlocBrasilia                      DF7009290000000000000980000020
95950IXYA063643562BR1101                                    Caixa Econômica FedeSetor Bancário Sul - Quadra 04, 34, BlocBrasilia                      DF7009290000000000000980000021
95950IXYA063643576BR1101                Cooperativa de Crédito Vale do Itajaí ViRua Hermann Hering,1125                 Blumenau                      SC8901097100000000000980000022
95950IXYA063643580BR1101                Cooperativa de Crédito Vale do Itajaí ViRua Hermann Hering,1125                 Blumenau                      SC8901097100000000000980000023
95950IXYA063643593BR1101                Cooperativa de Crédito Vale do Itajaí ViRua Hermann Hering,1125                 Blumenau                      SC8901097100000000000980000024
95950IXYA063643602BR1101                Cooperativa de Crédito Vale do Itajaí ViRua Hermann Hering,1125                 Blumenau                      SC8901097100000000000980000025
95950IXYA063643616BR1101                Cooperativa de Crédito de Livre AdmissãoRua Coronel Procópio Gomes de Oliveira,4Jaraguá do Sul                SC8925120000000000000980000026
95950IXYA063643620BR1101                Cooperativa de Crédito de Livre AdmissãoRua Coronel Procópio Gomes de Oliveira,4Jaraguá do Sul                SC8925120000000000000980000027
95950IXYA063643633BR1101                Cooperativa de Crédito de Livre AdmissãoRua Coronel Procópio Gomes de Oliveira,4Jaraguá do Sul                SC8925120000000000000980000028
95950IXYA063643647BR1101                Cooperativa de Crédito de Livre AdmissãoRua Coronel Procópio Gomes de Oliveira,4Jaraguá do Sul                SC8925120000000000000980000029
95950IXYA063643655BR1101                Instituição Comunitária de Crédito BlumeRua Fiscal Verdi Francisco Lenzi,200 - sJaraguá do Sul                SC8925145000000000000980000030
95950IXYA063643664BR1101                Instituição Comunitária de Crédito BlumeRua Fiscal Verdi Francisco Lenzi,200 - sJaraguá do Sul                SC8925145000000000000980000031
95950IXYA063643678BR1101                Instituição Comunitária de Crédito BlumeRua Fiscal Verdi Francisco Lenzi,200 - sJaraguá do Sul                SC8925145000000000000980000032
95950IXYA063643681BR1101                Instituição Comunitária de Crédito BlumeRua Fiscal Verdi Francisco Lenzi,200 - sJaraguá do Sul                SC8925145000000000000980000033
95950IXYA063643695BR1101                                     José Anselmo da SilRua José Narloch,1130                   Jaraguá do Sul                SC8925379000000000000980000034
95950IXYA063643704BR1101                                     José Anselmo da SilRua José Narloch,1130                   Jaraguá do Sul                SC8925379000000000000980000035
95950IXYA063643718BR1101                                     José Anselmo da SilRua José Narloch,1130                   Jaraguá do Sul                SC8925379000000000000980000036
95950IXYA063643721BR1101                                     José Anselmo da SilRua José Narloch,1130                   Jaraguá do Sul                SC8925379000000000000980000037
95950IXYA063643735BR1101                                            Edison LopesRua José Lescowics,37                   Jaraguá do Sul                SC8926030600000000000980000038
95950IXYA063643749BR1101                                            Edison LopesRua José Lescowics,37                   Jaraguá do Sul                SC8926030600000000000980000039
95950IXYA063643752BR1101                                            Edison LopesRua José Lescowics,37                   Jaraguá do Sul                SC8926030600000000000980000040
95950IXYA063643766BR1101                                            Edison LopesRua José Lescowics,37                   Jaraguá do Sul                SC8926030600000000000980000041
95950IXYA063643770BR1101                Banco Regional de Desenvolvimento do ExtRua Uruguai,155 - 4.º andar             Porto Alegre                  RS9001014000000000000980000042
95950IXYA063643783BR1101                Banco Regional de Desenvolvimento do ExtRua Uruguai,155 - 4.º andar             Porto Alegre                  RS9001014000000000000980000043
95950IXYA063643797BR1101                Banco Regional de Desenvolvimento do ExtRua Uruguai,155 - 4.º andar             Porto Alegre                  RS9001014000000000000980000044
95950IXYA063643806BR1101                Banco Regional de Desenvolvimento do ExtRua Uruguai,155 - 4.º andar             Porto Alegre                  RS9001014000000000000980000045