85950000000000000000INNOVARE                                040720230000010000000000000000000000000000000000000000000000000000000000000000000000000000000000000000000000000980000001
95950IXYA063637261BR1101                                     BANCO DO BRASIL S/AQ SAUN QUADRA 5 LOTE B TORRES I, II E IIBrasilia                      DF7004091200000000000980000002
95950IXYA063637275BR1101                COOPERATIVA DE CREDITO DE EMPRESARIOS - RUA DO COMÉRCIO,207                     Concórdia                     SC8970008500000000000980000003
95950IXYA063637289BR1101                COOPERATIVA DE CREDITO DE LIVRE ADMISSAORUA DR MARURI,1242                      Concórdia                     SC8970016800000000000980000004
95950IXYA063637292BR1101                                 CELESC DISTRIBUICAO S.AAVENIDA ITAMARATI,160 - BLOCO A1, B1 E BFlorianópolis                 SC8803490000000000000980000005