85950000000000000000INNOVARE                                040720230000010000000000000000000000000000000000000000000000000000000000000000000000000000000000000000000000000980000001
95950IXYA063637522BR1101                                 TRUSTHUB SECURITIZADORAAL CLEVELAND,509 - 5 andar              São Paulo                     SP0121800000000000000980000002
95950IXYA063637536BR1101                              FIDC MULTISETORIAL HOPE LPAV ANGELICA,1842                        São Paulo                     SP0131092300000000000980000003
95950IXYA063637540BR1101                HAMPTON FUNDO DE INVESTIMENTO EM DIREITOAVENIDA PAULISTA,1793                   São Paulo                     SP0131120000000000000980000004
95950IXYA063637553BR1101                                        RHODIA BRASIL SAAV DOUTOR ROBERTO MOREIRA,5005          Paulina                       SP0131491400000000000980000005
95950IXYA063637567BR1101                BANCRED FUNDO DIREITOS CREDITORIOS NAO PAV BRIGADEIRO FARIA LIMA,1355 - 3 ANDAR São Paulo                     SP0145190100000000000980000006
95950IXYA063637575BR1101                                VIA CAPITAL ARTEMUS FIDCAV BRIGADEIRO FARIA LIMA,1355           São Paulo                     SP0145200200000000000980000007
95950IXYA063637584BR1101                SRM EXODUS PME FUNDO DE INVESTIMENTO EM AV BRIGADEIRO FARIA LIMA,2277           São Paulo                     SP0145200000000000000980000008
95950IXYA063637598BR1101                DSX INVESTIMENTOS EM DIREITOS CREDITORIOAV BRIGADEIRO FARIA LIMA,1355           São Paulo                     SP0145200200000000000980000009
95950IXYA063637607BR1101                FATORI FUNDO DE INVESTIMENTO EM DIR CREDAV BRIGADEIRO FARIA LIMA,1355 - 3 ANDAR São Paulo                     SP0145200200000000000980000010
95950IXYA063637615BR1101                FS FUNDO DE INVESTIMENTO EM DIREITOS CREAV BRIGADEIRO FARIA LIMA,1355           São Paulo                     SP0145200200000000000980000011
95950IXYA063637624BR1101                                             G I I  FIDCSENADOR JOAQUIM PEDRO SALGADO FILHO 203,Bento Gonçalves               RS0145200200000000000980000012
95950IXYA063637638BR1101                RDF  FUNDO DE INVESTIMENTOS  EM DIREITOSAV BRIGADEIRO FARIA LIMA,135            São Paulo                     SP0145200200000000000980000013
95950IXYA063637641BR1101                               RNX FUNDO DE INVESTIMENTOAV GETULIO VARGAS,63                    Brusque                       SC0145200200000000000980000014
95950IXYA063637655BR1101                STARS BANK FUNDO DE INVESTIMENTO CREDITOAV BRIGADEIRO FARIA LIMA,1355           São Paulo                     SP0145291900000000000980000015
95950IXYA063637669BR1101                                QUIMLOG TRANSPORTES LTDAR TAGUATO,53                            São Paulo                     SP0343306000000000000980000016
95950IXYA063637672BR1101                              PETROBRAS DISTRIBUIDORA SAR ALMIRANTE DELAMARE,1335               São Paulo                     SP0423004000000000000980000017
95950IXYA063637686BR1101                OG CRED FUNDO DE INVESTIMENTO EM DIREITOBRIGADEIRO FARIA LIMA,3900              São Paulo                     SP0453813300000000000980000018
95950IXYA063637690BR1101                             VALOREM FUNDO INV CRED MULTAV PRES JUSCELINO KUBITSCHEK,50         São Paulo                     SP0454300000000000000980000019
95950IXYA063637709BR1101                     CREDIT BRASIL FOMENTO MERCANTIL S ARUA JAMES JOULE,65 - 5 ANDAR            MONCOES                       SP0457608000000000000980000020
95950IXYA063637712BR1101                ALEMOLDE INDUSTRIA E COMERCIO DE EMBALAGR ALOISIO MAGALHAES,453                 São Paulo                     SP0527505000000000000980000021
95950IXYA063637726BR1101                           CHICAGO PNEUMATIC BRASIL LTDAAV. PIRAÍBA,202                         Baruerí                       SP0646012100000000000980000022
95950IXYA063637730BR1101                COREMAL COMERCIO, DISTRIBUICAO, FABRICACEST DO CAPUAVA,1650                     Cotia                         SP0671658000000000000980000023
95950IXYA063637743BR1101                         TRANSPORTADORA RODOQUIMICA LTDAAV DONA EUGENIA MACHADO DA SILVA,162    Guarulhos                     SP0707107000000000000980000024
95950IXYA063637757BR1101                      TRANSAL TRANSPORTADORA SALVAN LTDATUA JOAO RAINIERI,619                   Guarulhos                     SP0717712000000000000980000025
95950IXYA063637765BR1101                                 METAL GRAFICA MOGI LTDAESTRADA DO BONSUCESSO,1933              Itaquaquecetuba               SP0857900000000000000980000026
95950IXYA063637774BR1101                                INFAC SECURITIZADORA S ARUA PRINCESA ISABEL,40                  Criciúma                      SC0888013000000000000980000027
95950IXYA063637788BR1101                                CADAN TRANSPORTES EIRELIRUA GIOVANNI BAATTISTA  PIRELLI,271     Santo André                   SP0911134000000000000980000028
95950IXYA063637791BR1101                                JEGUEDE TRANSPORTES LTDAR DOM FERNANDO MASCARENHAS,150          São Bernardo do Campo         SP0979102000000000000980000029
95950IXYA063637805BR1101                        NARITA INDUSTRIA E COMERCIO LTDARUA PRIMEIRO DE MAIO,10                 São Bernardo do Campo         SP0984000000000000000980000030
95950IXYA063637814BR1101                POLI RESINAS INDUSTRIA E COMERCIO DE RESPART FUKUTARO YIDA,1310                 São Bernardo do Campo         SP0985206000000000000980000031
95950IXYA063637828BR1101                        POSTO IMPERADOR DOM PEDRO I LTDAROD ROD. DOM PEDRO I KM 123 300,300     Valinhos                      SP0985206000000000000980000032
95950IXYA063637831BR1101                      SIGMA TRANSPORTES E LOGISTICA LTDARUA JOSE WENCWSLAU VENTURA,210          São Paulo                     SP1104552500000000000980000033
95950IXYA063637845BR1101                DECO COMERCIO DE MATERIAIS PLASTICOS LTDAV DOM JOAO VI,700                      PINDAMONHANGABA               SP1241280500000000000980000034
95950IXYA063637859BR1101                EPLAM - EMBALAGENS PLASTICAS AMERICANA LR TIMBIRAS,383                          Americana                     SP1346621000000000000980000035
95950IXYA063637862BR1101                          ARQUIVEI SERVICOS ON LINE LTDAAV DOUTOR CARLOS BOTELHO,1863           São Carlos                    SP1356025000000000000980000036
95950IXYA063637876BR1101                   RENTANK EQUIPAMENTOS INDUSTRIAS LTDA.PRAÇA EMILIO MARCONATO,1000             JAGUARIUNA                    SP1391607400000000000980000037
95950IXYA063637880BR1101                                         SSOIL ENERGY SAESTRADA MUNICIPAL COROADOS,148          COROADOS                      SP1626000000000000000980000038
95950IXYA063637893BR1101                                    ONE 7 SECURITIZADORAJOSE BONIFACIO,560                      Tatui                         SP1827000000000000000980000039
95950IXYA063637902BR1101                                                   TOTVSAV RAJA GABAGLIA,2664                   Belo Horizonte                MG3038040300000000000980000040
95950IXYA063637916BR1101                                  DENISE CRISANTO AMARALRUA 08 CHACARA 193,221                  Brasilia                      DF7200680000000000000980000041
95950IXYA063637920BR1101                              QUANTIQ DISTRIBUIDORA LTDARUA ANTONIO LACERDA BRAGA,3210          Curitiba                      PR8117020000000000000980000042
95950IXYA063637933BR1101                                    MID TRANSPORTES LTDARUA CYRO CORREIA PEREIRA,667            Curitiba                      PR8117023000000000000980000043
95950IXYA063637947BR1101                ALFAPRINT IND. COM. DE ETIQUETAS E IMPRERUA LUDOVICO ZANIER,365                 Curitiba                      PR8135009000000000000980000044
95950IXYA063637955BR1101                         TW TRANSPORTES E LOGISTICA LTDAROD BR 116, KM 120,26640                Curitiba                      PR8169050000000000000980000045
95950IXYA063637964BR1101                                 ARLETE TRANSPORTES LTDARUA ALEXANDRE ZANCHETTA,100             São José dos Pinhais          PR8301514800000000000980000046
95950IXYA063637978BR1101                            IBQ - INDÚSTRIAS QUIMICAS S/QUATRO BARRAS,S/N                       QUATRO BARRAS                 PR8342000000000000000980000047
95950IXYA063637981BR1101                              MAZZUCHELLO SEGURANCA LTDARUA DEMERVAL BIELSKI,215 - CASA B       QUATRO BARRAS                 PR8342000000000000000980000048
95950IXYA063637995BR1101                          TRANSPORTES MAZZUCHELLO EIRELIRUA DEMERVAL BIELSKI,219                QUATRO BARRAS                 PR8342000000000000000980000049
95950IXYA063638001BR1101                       BIOFRAGANE PRODUTOS QUIMICOS LTDARUA GUILHERME WIECHETECK,1019           Ponta Grossa                  PR8404375200000000000980000050
95950IXYA063638015BR1101                TRUCKS COM. E TEC. DE RASTREAD. COMUNICARUA OSVALDO CRUZ,492 - 6 andar          IBIPORA                       PR8620000000000000000980000051
95950IXYA063638029BR1101                 TRUCKS CONTROL SERVIÇOS DE LOGISTICA LTRUA OSVALDO CRUZ,492 - 6 andar          IBIPORA                       PR8620000000000000000980000052
95950IXYA063638032BR1101                                            INTEBRAS S/ARODOVIA BR 101 - KM 210,S/N             São José                      SC8810480000000000000980000053
95950IXYA063638046BR1101                                     MKF SOLUCOES EIRELIR PARAISO,27                            São José                      SC8811746500000000000980000054
95950IXYA063638050BR1101                MARTINELLI COMERCIAL DE PECAS SUL CATARIAV LUIZ LAZZARIN,3100                   Criciúma                      SC8831333000000000000980000055
95950IXYA063638063BR1101                             SRM STRONG TRANSPORTES LTDAAV GABRIEL ZANETTE,1500                 Criciúma                      SC8851550500000000000980000056
95950IXYA063638077BR1101                                REGIONAL EMBALAGENS LTDAR VINTE E SETE DE SETEMBRO,703          Sangão                        SC8871700000000000000980000057
95950IXYA063638085BR1101                              S&A INDUSTRIA QUIMICA LTDARUA MARIO SORATO,90                     Sangão                        SC8871700000000000000980000058
95950IXYA063638094BR1101                          PRINTEIP FITAS ADEVISAS EIRELIRODOVIA SC SC 370 KM 169,169            Gravatal                      SC8873500000000000000980000059
95950IXYA063638103BR1101                                         BANCO DO BRASILAV CENTENARIO,406                       Criciúma                      SC8880100000000000000980000060
95950IXYA063638117BR1101                           BOS FOMENTO COMERCIAL LTDA MERUA HENRIQUE LAGE,798 - sala 4          Criciúma                      SC8880101000000000000980000061
95950IXYA063638125BR1101                                       C. D. RONCHI LTDARUA MARECHAL DEODORO,189                Criciúma                      SC8880111000000000000980000062
95950IXYA063638134BR1101                               GAMA FOMENTO COMERCIAL SARUA RUI BARBOSA,149                     Criciúma                      SC8880112000000000000980000063
95950IXYA063638148BR1101                         BIALK SECURITIZADORA DE CREDITORUA CORONEL PEDRO BENEDET,46 - SL328    Criciúma                      SC8880125000000000000980000064
95950IXYA063638151BR1101                              CGM FOMENTO MERCANTIL LTDARua Coronel Pedro Benedet,46            Criciúma                      SC8880125000000000000980000065
95950IXYA063638165BR1101                          FUNDO INV DIR CRED MACCRED N PRUA SANTO ANTONIO,456                   Criciúma                      SC8880144000000000000980000066
95950IXYA063638179BR1101                       MERCEPECAS COMERCIO DE PECAS LTDAAVENIDA CENTENARIO,4180                 Criciúma                      SC8880200100000000000980000067
95950IXYA063638182BR1101                               LS FOMENTO COMERCIAL LTDAR OSVALDO ARANHA,15                     Criciúma                      SC8880213000000000000980000068
95950IXYA063638196BR1101                                         LORENI DA SILVARua Epitacio Pessoa,195 - casa 2        Criciúma                      SC8880326000000000000980000069
95950IXYA063638205BR1101                                         LORENI DA SILVAVALMOR MANENTI                          Criciúma                      SC8880326000000000000980000070
95950IXYA063638219BR1101                MEGA ESCRITORIO COMERCIO DE MOVEIS EIRELR DESEMBARGADOR PEDRO SILVA,648         Criciúma                      SC8880310000000000000980000071
95950IXYA063638222BR1101                                        ABSOLUTA TELECOMAV SANTOS DUMONT,1665                   Criciúma                      SC8880320000000000000980000072
95950IXYA063638236BR1101                  CAMPOSDIAS COMERCIO DE EXTINTORES LTDAR EPITACIO PESSOA,1230                  Criciúma                      SC8880326000000000000980000073
95950IXYA063638240BR1101                                 A. SILVA FERRAGENS LTDAROD LUIZ ROSSO KM 05,3610               Criciúma                      SC8880347000000000000980000074
95950IXYA063638253BR1101                     SMIERVEDA VEDACOES INDUSTRIAIS LTDAROD LUIZ ROSSO,1025                     Criciúma                      SC8880359500000000000980000075
95950IXYA063638267BR1101                        PREFEITURA MUNICIPAL DE CRICIUMAR DOMENICO SONEGO,542                   Criciúma                      SC8880405000000000000980000076
95950IXYA063638275BR1101                       FKM CODIFICAÇÃO E SOLUÇÕES IND LTAV SANTOS DUMONT,1665                   Criciúma                      SC8880434200000000000980000077
95950IXYA063638284BR1101                                      UP TELECOMUNICAÇÕEAV SANTOS DUMON,1665                    Criciúma                      SC8880434200000000000980000078
95950IXYA063638298BR1101                   AI ELECTRIC COMERCIAL ELETRICA EIRELIR GIACOMO SONEGO NETO,320               Criciúma                      SC8880444000000000000980000079
95950IXYA063638307BR1101                   SINERSOFT SOLUÇOES EM INFORMATICA LTDRUA SAO MARTINHO,489                    Criciúma                      SC8880541500000000000980000080
95950IXYA063638315BR1101                         MARCIO DA SILVA SILVEIRA EIRELIRUA WOIMIR WASNIEWSKI,38                Criciúma                      SC8880547500000000000980000081
95950IXYA063638324BR1101                                    FABIO MARTINS MARCOSR QUINZE DE NOVEMBRO,78                 Criciúma                      SC8880647100000000000980000082
95950IXYA063638338BR1101                                 JARDEL DA SILVA PEREIRARua Vidal Calin,139                     Criciúma                      SC8880677800000000000980000083
95950IXYA063638341BR1101                                  EDEMILSON LOPES BECKERRua Lourenço Zanette,335 - AP103 BL 07 SCriciúma                      SC8880947000000000000980000084
95950IXYA063638355BR1101                             ALESSIO SOLUCOES E SERVICOSR MONTEIRO LOBATO,133                   Criciúma                      SC8881102000000000000980000085
95950IXYA063638369BR1101                               ERGOMEDICINAL MEDICA LTDAR CRUZ E SOUZA,103                      Criciúma                      SC8881155000000000000980000086
95950IXYA063638372BR1101                              ANDRÉ LUIS SILVEIRA DA ROSRod Leonardo Bialecki,s/n               Criciúma                      SC8881286000000000000980000087
95950IXYA063638386BR1101                                  LUCAS KAUA DA SILVEIRARua Alfredo Del Priori,s/n              Cocal do Sul                  SC8881288500000000000980000088
95950IXYA063638390BR1101                               CARGO EXPRESS TRANSPORTESROD LUIZ ROSSO,11299                    Criciúma                      SC8881235100000000000980000089
95950IXYA063638409BR1101                DUPLACAO - COMERCIO E SERVICOS PNEUMATICROD OTAVIO DASSOLER,4120                Criciúma                      SC8881285000000000000980000090
95950IXYA063638412BR1101                                  JÉSSICA SARTOR DE SOUZAV Manoel Delfino de Freitas,75 - ED. ZACriciúma                      SC8881340000000000000980000091
95950IXYA063638426BR1101                                  LUIZ VANDERLEI DAMAZIORua Das Orquideas,520                   Criciúma                      SC8881358200000000000980000092
95950IXYA063638430BR1101                 FALCON E ROGER ENERGY ENERGIA RENOVAVELR GENERAL OSVALDO PINTO DA VEIGA,1323   Criciúma                      SC8881300000000000000980000093
95950IXYA063638443BR1101                 SCORPIONS TRANS E COMERCIO DE PEÇAS AUTRIO DE JANEIRO,20                       Criciúma                      SC8881333000000000000980000094
95950IXYA063638457BR1101                                 COMERCIAL AUTOMOTIVA SARUA MANOEL DELFINO FREITAS,815          Criciúma                      SC8881340000000000000980000095
95950IXYA063638465BR1101                                  JOSE DA SILVA COMERCIORODOVIA LEONARDO BIALECK,3111           Criciúma                      SC8881397000000000000980000096
95950IXYA063638474BR1101                                       JULIANO FELISBINORua São Miguel Do Oeste,416             Criciúma                      SC8881510000000000000980000097
95950IXYA063638488BR1101                                   INNO INFORMATICA LTDAAV GABRIEL ZANETTE,685                  Criciúma                      SC8881506000000000000980000098
95950IXYA063638491BR1101                               COLICRI LIMPEZA DE FOSSASR BRUNO NICROSINI,821                   Criciúma                      SC8881671000000000000980000099
95950IXYA063638505BR1101                J2D COMERCIO DE FERRAGENS E FERRAMENTAS R ANTONIO MANOEL JOAO,47                Criciúma                      SC8881745100000000000980000100
95950IXYA063638514BR1101                CCS INDUSTRIA E COMERCIO DE EMBALAGENS PROD. SC 443 KM 03,S/N                   Içara                         SC8882000000000000000980000101
95950IXYA063638528BR1101                           DDD INDUSTRIA E COMERCIO LTDAANTONIO JOSE FELICIANO,1464             Içara                         SC8882000000000000000980000102
95950IXYA063638531BR1101                                     INGA CAMINHOES LTDARODOVIA BR 101,S/N                      Içara                         SC8882000000000000000980000103
95950IXYA063638545BR1101                                      INNOVE SUPRIMENTOSRUA ANTONIO GUGLIELM,480                Içara                         SC8882000000000000000980000104
95950IXYA063638559BR1101                                     MERCA PAN CAMINHOESROD BR 101 KM 380,120                   Içara                         SC8882000000000000000980000105
95950IXYA063638562BR1101                NOVAK COMERCIO VAREJISTA DE COMBUSTIVEISROD SC 443,S/N                          Içara                         SC8882000000000000000980000106
95950IXYA063638576BR1101                RV DIESEL INJEÇAO ELETRONICA E BOMBAS LTROD SC 445,3080 - BLOCO D               Içara                         SC8882000000000000000980000107
95950IXYA063638580BR1101                              LILIANA MAGAGNIN BORTOLATORod Municipal Tranquilo Sartor,s/n      MORRO DA FUMAÇA               SC8883000000000000000980000108
95950IXYA063638593BR1101                                    MARIA PEREIRA MORAESRod Libero Fortunato Bortolato,40 - SequMORRO DA FUMAÇA               SC8883000000000000000980000109
95950IXYA063638602BR1101                                     EDSON LIMA DA ROCHAGIACOMO BORTOLON,165                    MORRO DA FUMAÇA               SC8883000000000000000980000110
95950IXYA063638616BR1101                             MARCELO DE COSTA E CIA LTDA15 DE NOVEMBRO - APARTAMENTO,1725       MORRO DA FUMAÇA               SC8883000000000000000980000111
95950IXYA063638620BR1101                          MILETO TREINAMENTOS GERENCIAISR ANGELO SERAFIM,145                    MORRO DA FUMAÇA               SC8883000000000000000980000112
95950IXYA063638633BR1101                               RODOBACH TRANSPORTES LTDAAV INOCENTE PAGNAN,1375                 MORRO DA FUMAÇA               SC8883000000000000000980000113
95950IXYA063638647BR1101                 INDUSTRIAL DE EMBALAGENS URUSSANGA LTDAROD GENEZIO MAZON,S/N                   Urussanga                     SC8884000000000000000980000114
95950IXYA063638655BR1101                          WILLIAN DOS SANTOS DE OLIVEIRARua Elias Rosso,57                      Criciúma                      SC8884500000000000000980000115
95950IXYA063638664BR1101                                       ALEXANDRE FRASSONRUA ASSIS DE SOUZA BRASIL,800           SAPUCAIA DO SUL               SC8884500000000000000980000116
95950IXYA063638678BR1101                    COCAL SHOP LOJA DE CONVENIENCIA LTDAROD MAXIMILIANO GAIDZINSKI,450          SAPUCAIA DO SUL               SC8884500000000000000980000117
95950IXYA063638681BR1101                         DC INDUSTRIA DE USINAGEM EIRELIR ASSIS DE SOUZA BRASIL,401             SAPUCAIA DO SUL               SC8884500000000000000980000118
95950IXYA063638695BR1101                                 POSTO COCAL DO SUL LTDAROD MAXIMILIANO GAIDZINSKI,462          Cocal do Sul                  SC8884500000000000000980000119
95950IXYA063638704BR1101                    PREFEITURA MUNICIPAL DE COCAL DO SULAV. POLIDORO SANTIAGO,519               SAPUCAIA DO SUL               SC8884500000000000000980000120
95950IXYA063638718BR1101                                          RAFAEL MARAGNORUA ASSIS DE SOUZA BRASIL,700           SAPUCAIA DO SUL               SC8884500000000000000980000121
95950IXYA063638721BR1101                     ROSGUIAR MANUTENCAO DE EQUIPAMENTOSR IDA SMANIA,347                        SAPUCAIA DO SUL               SC8884500000000000000980000122
95950IXYA063638735BR1101                                                   SAMAERUA LISBOA,520                          SAPUCAIA DO SUL               SC8884500000000000000980000123
95950IXYA063638749BR1101                SILVESTRI INDUSTRIA E COMERCIO DE EMBALAAV. ROBERTO GALLI,1444                  SAPUCAIA DO SUL               SC8884500000000000000980000124
95950IXYA063638752BR1101                           SILVIA MARIA LOPES DOS PASSOSAV FERNANDO FURLAN,315                  SAPUCAIA DO SUL               SC8884500000000000000980000125
95950IXYA063638766BR1101                                            BANCO SOFISARUA CORONEL PEDRO BENEDET,190           Criciúma                      SC8888000000000000000980000126
95950IXYA063638770BR1101                                    QUIMICA MARAGNO LTDAR ANGELO ANDREA SCARABELOT,352          Turvo                         SC8893000000000000000980000127
95950IXYA063638783BR1101                     UNICA SECURITIZADORA DE CREDITO S AALAMENDA ARISTILIANO RAMOS,105 - s 15   Rio do Sul                    SC8916014900000000000980000128
95950IXYA063638797BR1101                            BARCELONA SECURITIZADORA S/ARua do Principe,777                     Joinville                     SC8920100100000000000980000129
95950IXYA063638806BR1101                OPHIR CAPITAL SECURITIZADORA DE CREDITOSRUA EXPEDICIONARIO HOLZ,500 - SL 1703   Joinville                     SC8920308500000000000980000130
95950IXYA063638810BR1101                        VERTEC SERVICOS INDUSTRIAIS LTDAR DONA FRANCISCA,8300                   Joinville                     SC8921952200000000000980000131
95950IXYA063638823BR1101                               ACEVILLE TRANSPORTES LTDARUA SERVIDAO MIGUEL ANGELO,113          Joinville                     SC8923700700000000000980000132
95950IXYA063638837BR1101                OPERA  CAPITAL SECURITIZADORA DE CREDITOJOAO PICOLLI,322                        Jaraguá do Sul                SC8925159000000000000980000133
95950IXYA063638845BR1101                                  WD SERVICOS E PRODUTOSR EXPEDICIONARIO ANTONIO CARLOS,798     Jaraguá do Sul                SC8925716800000000000980000134
95950IXYA063638854BR1101                  DISTRIBUIDORA DE COMBUSTIVEIS PASINATOROD BR 282 KM 370,222                   ERVAL VELHO                   SC8961300000000000000980000135
95950IXYA063638868BR1101                   EDEMAR RUSSI E CIA LTDA POSTO RUSSI 8ROD BR 282 KM 491,611                   Faxinal dos Guedes            SC8969400000000000000980000136
95950IXYA063638871BR1101                              TRANSPORTADORA FABRIS LTDARUA DOM JOAQUIM DOMINGUES DE OLIVEIRA,13Chapecó                       SC8980517000000000000980000137
95950IXYA063638885BR1101                    ALCAPLAS INDUSTRIA DE PLASTICOS LTDARUA ANTONIO F MULINARI,680              Xanxerê                       SC8982000000000000000980000138
95950IXYA063638899BR1101                    VEDAMASTER SOLUCOES EM VEDACOES LTDAAV PARANA,847                           Porto Alegre                  RS9024060000000000000980000139
95950IXYA063638908BR1101                                SEJA SECURITIZADORA  S ARUA DONA LAURA,320 - SALA 401           Porto Alegre                  RS9043009000000000000980000140
95950IXYA063638911BR1101                         MACHADO SHULTZ E HECK ADVOGADOSAV CRISTOVAO COLOMBO,2948 - SALA 701, HIPorto Alegre                  RS9056000200000000000980000141
95950IXYA063638925BR1101                                               GRUPO RDFAVDR. NILO PECANHA,1851 - 6 ANDAR       Porto Alegre                  RS9133000000000000000980000142
95950IXYA063638939BR1101                                MODULAR TRANSPORTES LTDAAV SANTOS FERREIRA,3500                 Canoas                        RS9203013800000000000980000143
95950IXYA063638942BR1101                COOPERATIVA DE TRANSPORTE DE PRODUTOS LIR JOSE LUIZ MAGGI,19                    TRES CACHOEIRAS               RS9558000000000000000980000144
95950IXYA063638956BR1101                  REFINARIA DE PETROLEO RIOGRANDENSE S.ARUA ENG.HEITOR A. BARCELLOS,551         RIO GRANDE                    RS9620290000000000000980000145
95950IXYA063638960BR1101                                 TRANSPORTES RODOVIA SULAV TUPARENDI,1920                       Santa Rosa                    RS9878510900000000000980000146